{
  "contractName": "MediScan",
  "abi": [
    {
      "anonymous": false,
      "inputs": [
        {
          "indexed": false,
          "internalType": "address",
          "name": "creatorAddress",
          "type": "address"
        },
        {
          "indexed": false,
          "internalType": "string",
          "name": "name",
          "type": "string"
        },
        {
          "indexed": false,
          "internalType": "string",
          "name": "residenceAddress",
          "type": "string"
        },
        {
          "indexed": false,
          "internalType": "string",
          "name": "nominees",
          "type": "string"
        },
        {
          "indexed": false,
          "internalType": "uint256",
          "name": "phno",
          "type": "uint256"
        },
        {
          "indexed": false,
          "internalType": "string",
          "name": "medicalIssues",
          "type": "string"
        },
        {
          "indexed": false,
          "internalType": "string",
          "name": "allergies",
          "type": "string"
        },
        {
          "indexed": false,
          "internalType": "string",
          "name": "image",
          "type": "string"
        },
        {
          "indexed": false,
          "internalType": "address",
          "name": "patientAddress",
          "type": "address"
        },
        {
          "indexed": false,
          "internalType": "bool",
          "name": "isUser",
          "type": "bool"
        }
      ],
      "name": "patientCreated",
      "type": "event"
    },
    {
      "anonymous": false,
      "inputs": [
        {
          "indexed": false,
          "internalType": "string",
          "name": "nominees",
          "type": "string"
        },
        {
          "indexed": false,
          "internalType": "string",
          "name": "medicalIssues",
          "type": "string"
        },
        {
          "indexed": false,
          "internalType": "string",
          "name": "allergies",
          "type": "string"
        }
      ],
      "name": "patientEdit",
      "type": "event"
    },
    {
      "inputs": [
        {
          "internalType": "address",
          "name": "",
          "type": "address"
        }
      ],
      "name": "Patients",
      "outputs": [
        {
          "internalType": "address",
          "name": "creatorAddress",
          "type": "address"
        },
        {
          "internalType": "string",
          "name": "name",
          "type": "string"
        },
        {
          "internalType": "string",
          "name": "residenceAddress",
          "type": "string"
        },
        {
          "internalType": "string",
          "name": "nominees",
          "type": "string"
        },
        {
          "internalType": "uint256",
          "name": "phno",
          "type": "uint256"
        },
        {
          "internalType": "string",
          "name": "medicalIssues",
          "type": "string"
        },
        {
          "internalType": "string",
          "name": "allergies",
          "type": "string"
        },
        {
          "internalType": "string",
          "name": "image",
          "type": "string"
        },
        {
          "internalType": "address",
          "name": "patientAddress",
          "type": "address"
        },
        {
          "internalType": "bool",
          "name": "isUser",
          "type": "bool"
        }
      ],
      "stateMutability": "view",
      "type": "function",
      "constant": true
    },
    {
      "inputs": [
        {
          "internalType": "string",
          "name": "name",
          "type": "string"
        },
        {
          "internalType": "string",
          "name": "residenceAddress",
          "type": "string"
        },
        {
          "internalType": "uint256",
          "name": "phno",
          "type": "uint256"
        },
        {
          "internalType": "string",
          "name": "nominees",
          "type": "string"
        },
        {
          "internalType": "string",
          "name": "medicalIssues",
          "type": "string"
        },
        {
          "internalType": "string",
          "name": "allergies",
          "type": "string"
        },
        {
          "internalType": "string",
          "name": "image",
          "type": "string"
        },
        {
          "internalType": "address",
          "name": "patientAddress",
          "type": "address"
        }
      ],
      "name": "createPatient",
      "outputs": [],
      "stateMutability": "nonpayable",
      "type": "function"
    },
    {
      "inputs": [
        {
          "internalType": "address",
          "name": "patientAddress",
          "type": "address"
        },
        {
          "internalType": "string",
          "name": "nominees",
          "type": "string"
        },
        {
          "internalType": "string",
          "name": "medicalIssues",
          "type": "string"
        },
        {
          "internalType": "string",
          "name": "allergies",
          "type": "string"
        }
      ],
      "name": "editPatient",
      "outputs": [],
      "stateMutability": "nonpayable",
      "type": "function"
    }
  ],
  "bytecode": "0x608060405234801561001057600080fd5b50611184806100206000396000f3fe608060405234801561001057600080fd5b50600436106100415760003560e01c806340f92948146100465780636851eb8614610062578063afca7e151461007e575b600080fd5b610060600480360381019061005b9190610b18565b6100b7565b005b61007c60048036038101906100779190610bd3565b610312565b005b61009860048036038101906100939190610aeb565b6105dd565b6040516100ae9a99989796959493929190610e17565b60405180910390f35b6000808573ffffffffffffffffffffffffffffffffffffffff1673ffffffffffffffffffffffffffffffffffffffff16815260200190815260200160002060080160149054906101000a900460ff1661010f57600080fd5b826000808673ffffffffffffffffffffffffffffffffffffffff1673ffffffffffffffffffffffffffffffffffffffff16815260200190815260200160002060030190805190602001906101649291906109ae565b50816000808673ffffffffffffffffffffffffffffffffffffffff1673ffffffffffffffffffffffffffffffffffffffff16815260200190815260200160002060050190805190602001906101ba9291906109ae565b50806000808673ffffffffffffffffffffffffffffffffffffffff1673ffffffffffffffffffffffffffffffffffffffff16815260200190815260200160002060060190805190602001906102109291906109ae565b507f86114e5d46a30cd7e9a6e7bb327afb3e763e7cc2c4bf06fbf13846fbd116e3e06000808673ffffffffffffffffffffffffffffffffffffffff1673ffffffffffffffffffffffffffffffffffffffff1681526020019081526020016000206003016000808773ffffffffffffffffffffffffffffffffffffffff1673ffffffffffffffffffffffffffffffffffffffff1681526020019081526020016000206005016000808873ffffffffffffffffffffffffffffffffffffffff1673ffffffffffffffffffffffffffffffffffffffff16815260200190815260200160002060060160405161030493929190610edd565b60405180910390a150505050565b6000808273ffffffffffffffffffffffffffffffffffffffff1673ffffffffffffffffffffffffffffffffffffffff16815260200190815260200160002060080160149054906101000a900460ff161561036b57600080fd5b6040518061014001604052803373ffffffffffffffffffffffffffffffffffffffff1681526020018981526020018881526020018681526020018781526020018581526020018481526020018381526020018273ffffffffffffffffffffffffffffffffffffffff168152602001600115158152506000808373ffffffffffffffffffffffffffffffffffffffff1673ffffffffffffffffffffffffffffffffffffffff16815260200190815260200160002060008201518160000160006101000a81548173ffffffffffffffffffffffffffffffffffffffff021916908373ffffffffffffffffffffffffffffffffffffffff16021790555060208201518160010190805190602001906104819291906109ae565b50604082015181600201908051906020019061049e9291906109ae565b5060608201518160030190805190602001906104bb9291906109ae565b506080820151816004015560a08201518160050190805190602001906104e29291906109ae565b5060c08201518160060190805190602001906104ff9291906109ae565b5060e082015181600701908051906020019061051c9291906109ae565b506101008201518160080160006101000a81548173ffffffffffffffffffffffffffffffffffffffff021916908373ffffffffffffffffffffffffffffffffffffffff1602179055506101208201518160080160146101000a81548160ff0219169083151502179055509050507fa9cea24c20888ca22291c10a65835eb4775191dccb77ce8b6ecf09fa7c3190aa338989888a8989898960016040516105cb9a99989796959493929190610e17565b60405180910390a15050505050505050565b60006020528060005260406000206000915090508060000160009054906101000a900473ffffffffffffffffffffffffffffffffffffffff16908060010180546106269061103a565b80601f01602080910402602001604051908101604052809291908181526020018280546106529061103a565b801561069f5780601f106106745761010080835404028352916020019161069f565b820191906000526020600020905b81548152906001019060200180831161068257829003601f168201915b5050505050908060020180546106b49061103a565b80601f01602080910402602001604051908101604052809291908181526020018280546106e09061103a565b801561072d5780601f106107025761010080835404028352916020019161072d565b820191906000526020600020905b81548152906001019060200180831161071057829003601f168201915b5050505050908060030180546107429061103a565b80601f016020809104026020016040519081016040528092919081815260200182805461076e9061103a565b80156107bb5780601f10610790576101008083540402835291602001916107bb565b820191906000526020600020905b81548152906001019060200180831161079e57829003601f168201915b5050505050908060040154908060050180546107d69061103a565b80601f01602080910402602001604051908101604052809291908181526020018280546108029061103a565b801561084f5780601f106108245761010080835404028352916020019161084f565b820191906000526020600020905b81548152906001019060200180831161083257829003601f168201915b5050505050908060060180546108649061103a565b80601f01602080910402602001604051908101604052809291908181526020018280546108909061103a565b80156108dd5780601f106108b2576101008083540402835291602001916108dd565b820191906000526020600020905b8154815290600101906020018083116108c057829003601f168201915b5050505050908060070180546108f29061103a565b80601f016020809104026020016040519081016040528092919081815260200182805461091e9061103a565b801561096b5780601f106109405761010080835404028352916020019161096b565b820191906000526020600020905b81548152906001019060200180831161094e57829003601f168201915b5050505050908060080160009054906101000a900473ffffffffffffffffffffffffffffffffffffffff16908060080160149054906101000a900460ff1690508a565b8280546109ba9061103a565b90600052602060002090601f0160209004810192826109dc5760008555610a23565b82601f106109f557805160ff1916838001178555610a23565b82800160010185558215610a23579182015b82811115610a22578251825591602001919060010190610a07565b5b509050610a309190610a34565b5090565b5b80821115610a4d576000816000905550600101610a35565b5090565b6000610a64610a5f84610f4e565b610f29565b905082815260208101848484011115610a8057610a7f611100565b5b610a8b848285610ff8565b509392505050565b600081359050610aa281611120565b92915050565b600082601f830112610abd57610abc6110fb565b5b8135610acd848260208601610a51565b91505092915050565b600081359050610ae581611137565b92915050565b600060208284031215610b0157610b0061110a565b5b6000610b0f84828501610a93565b91505092915050565b60008060008060808587031215610b3257610b3161110a565b5b6000610b4087828801610a93565b945050602085013567ffffffffffffffff811115610b6157610b60611105565b5b610b6d87828801610aa8565b935050604085013567ffffffffffffffff811115610b8e57610b8d611105565b5b610b9a87828801610aa8565b925050606085013567ffffffffffffffff811115610bbb57610bba611105565b5b610bc787828801610aa8565b91505092959194509250565b600080600080600080600080610100898b031215610bf457610bf361110a565b5b600089013567ffffffffffffffff811115610c1257610c11611105565b5b610c1e8b828c01610aa8565b985050602089013567ffffffffffffffff811115610c3f57610c3e611105565b5b610c4b8b828c01610aa8565b9750506040610c5c8b828c01610ad6565b965050606089013567ffffffffffffffff811115610c7d57610c7c611105565b5b610c898b828c01610aa8565b955050608089013567ffffffffffffffff811115610caa57610ca9611105565b5b610cb68b828c01610aa8565b94505060a089013567ffffffffffffffff811115610cd757610cd6611105565b5b610ce38b828c01610aa8565b93505060c089013567ffffffffffffffff811115610d0457610d03611105565b5b610d108b828c01610aa8565b92505060e0610d218b828c01610a93565b9150509295985092959890939650565b610d3a81610fb0565b82525050565b610d4981610fc2565b82525050565b6000610d5a82610f94565b610d648185610f9f565b9350610d74818560208601611007565b610d7d8161110f565b840191505092915050565b60008154610d958161103a565b610d9f8186610f9f565b94506001821660008114610dba5760018114610dcc57610dff565b60ff1983168652602086019350610dff565b610dd585610f7f565b60005b83811015610df757815481890152600182019150602081019050610dd8565b808801955050505b50505092915050565b610e1181610fee565b82525050565b600061014082019050610e2d600083018d610d31565b8181036020830152610e3f818c610d4f565b90508181036040830152610e53818b610d4f565b90508181036060830152610e67818a610d4f565b9050610e766080830189610e08565b81810360a0830152610e888188610d4f565b905081810360c0830152610e9c8187610d4f565b905081810360e0830152610eb08186610d4f565b9050610ec0610100830185610d31565b610ece610120830184610d40565b9b9a5050505050505050505050565b60006060820190508181036000830152610ef78186610d88565b90508181036020830152610f0b8185610d88565b90508181036040830152610f1f8184610d88565b9050949350505050565b6000610f33610f44565b9050610f3f828261106c565b919050565b6000604051905090565b600067ffffffffffffffff821115610f6957610f686110cc565b5b610f728261110f565b9050602081019050919050565b60008190508160005260206000209050919050565b600081519050919050565b600082825260208201905092915050565b6000610fbb82610fce565b9050919050565b60008115159050919050565b600073ffffffffffffffffffffffffffffffffffffffff82169050919050565b6000819050919050565b82818337600083830152505050565b60005b8381101561102557808201518184015260208101905061100a565b83811115611034576000848401525b50505050565b6000600282049050600182168061105257607f821691505b602082108114156110665761106561109d565b5b50919050565b6110758261110f565b810181811067ffffffffffffffff82111715611094576110936110cc565b5b80604052505050565b7f4e487b7100000000000000000000000000000000000000000000000000000000600052602260045260246000fd5b7f4e487b7100000000000000000000000000000000000000000000000000000000600052604160045260246000fd5b600080fd5b600080fd5b600080fd5b600080fd5b6000601f19601f8301169050919050565b61112981610fb0565b811461113457600080fd5b50565b61114081610fee565b811461114b57600080fd5b5056fea2646970667358221220d49012e2d24e2bcdd0cb9828d4a47cb830c767cc44cde16f4cd8a20fc04d76a264736f6c63430008060033",
  "immutableReferences": {},
  "source": "// Use Solidity Version greater than 0.7.0 and less than 0.9.0\r\n\r\npragma solidity ^0.8.6;\r\n\r\n// Create a Smart Contract called Medical\r\ncontract MediScan {\r\n    // Create a mapping to store the data as an array of Patients using the address of each Patient as the parameter\r\n    mapping(address => Patient) public Patients;\r\n    // Create an event called patientCreated to notify the listeners that the patient was created\r\n    event patientCreated(\r\n        address creatorAddress,\r\n        string name,\r\n        string residenceAddress,\r\n        string nominees,\r\n        uint256 phno,\r\n        string medicalIssues,\r\n        string allergies,\r\n        string image,\r\n        address patientAddress,\r\n        bool isUser\r\n    );\r\n    // Create an event called patientEdit to notify the listeners that the patient was Edited\r\n\r\n    event patientEdit(string nominees, string medicalIssues, string allergies);\r\n\r\n    // Create a struct called Patient to store the data of the patient\r\n    struct Patient {\r\n        address creatorAddress; // authority who creates the Patient\r\n        string name; // Na,e of the patient\r\n        string residenceAddress; // address of the patient\r\n        string nominees; // closest person ID// also seperated by ;\r\n        uint256 phno;\r\n        string medicalIssues; // seperated by ;\r\n        string allergies; //seperated by ;\r\n        string image; // Patient's Image\r\n        address patientAddress; // Patient's Address\r\n        bool isUser;\r\n    }\r\n\r\n    // Create a function to handle the creation of the Patients\r\n    function createPatient(\r\n        string memory name,\r\n        string memory residenceAddress,\r\n        uint256 phno,\r\n        string memory nominees,\r\n        string memory medicalIssues,\r\n        string memory allergies,\r\n        string memory image,\r\n        address patientAddress\r\n    ) public {\r\n        // If a user already exists then fail the transaction\r\n        require(!Patients[patientAddress].isUser);\r\n\r\n        // Create the patient with the authorization of the creator\r\n        Patients[patientAddress] = Patient(\r\n            msg.sender,\r\n            name,\r\n            residenceAddress,\r\n            nominees,\r\n            phno,\r\n            medicalIssues,\r\n            allergies,\r\n            image,\r\n            patientAddress,\r\n            true\r\n        );\r\n\r\n        // Emit the event that the patient was successfully created\r\n        emit patientCreated(\r\n            msg.sender,\r\n            name,\r\n            residenceAddress,\r\n            nominees,\r\n            phno,\r\n            medicalIssues,\r\n            allergies,\r\n            image,\r\n            patientAddress,\r\n            true\r\n        );\r\n    }\r\n\r\n    // Create a function to edit the patient's details if neccessary\r\n    function editPatient(\r\n        address patientAddress,\r\n        string memory nominees,\r\n        string memory medicalIssues,\r\n        string memory allergies\r\n    ) public {\r\n        // User should exist\r\n        require(!(!Patients[patientAddress].isUser));\r\n        // Set all data\r\n        Patients[patientAddress].nominees = nominees;\r\n        Patients[patientAddress].medicalIssues = medicalIssues;\r\n        Patients[patientAddress].allergies = allergies;\r\n\r\n        // Emit that patient was Edited\r\n        emit patientEdit(\r\n            Patients[patientAddress].nominees,\r\n            Patients[patientAddress].medicalIssues,\r\n            Patients[patientAddress].allergies\r\n        );\r\n    }\r\n}\r\n",
  "sourcePath": "D:/Projects/College/Final Year/mediScan/src/contracts/MediScan.sol",
  "compiler": {
    "name": "solc",
    "version": "0.8.6+commit.11564f7e.Emscripten.clang"
  },
  "schemaVersion": "3.4.1",
  "updatedAt": "2021-07-08T15:52:27.313Z",
  "networkType": "ethereum",
  "devdoc": {
    "kind": "dev",
    "methods": {},
    "version": 1
  },
  "userdoc": {
    "kind": "user",
    "methods": {},
    "version": 1
  }
}