{
  "contractName": "MediScan",
  "abi": [
    {
      "anonymous": false,
      "inputs": [
        {
          "indexed": false,
          "internalType": "address",
          "name": "creatorAddress",
          "type": "address"
        },
        {
          "indexed": false,
          "internalType": "string",
          "name": "name",
          "type": "string"
        },
        {
          "indexed": false,
          "internalType": "string",
          "name": "residenceAddress",
          "type": "string"
        },
        {
          "indexed": false,
          "internalType": "string",
          "name": "nominees",
          "type": "string"
        },
        {
          "indexed": false,
          "internalType": "uint256",
          "name": "phno",
          "type": "uint256"
        },
        {
          "indexed": false,
          "internalType": "string",
          "name": "medicalIssues",
          "type": "string"
        },
        {
          "indexed": false,
          "internalType": "string",
          "name": "allergies",
          "type": "string"
        },
        {
          "indexed": false,
          "internalType": "address",
          "name": "patientAddress",
          "type": "address"
        },
        {
          "indexed": false,
          "internalType": "bool",
          "name": "isUser",
          "type": "bool"
        }
      ],
      "name": "patientCreated",
      "type": "event"
    },
    {
      "anonymous": false,
      "inputs": [
        {
          "indexed": false,
          "internalType": "string",
          "name": "name",
          "type": "string"
        },
        {
          "indexed": false,
          "internalType": "string",
          "name": "residenceAddress",
          "type": "string"
        },
        {
          "indexed": false,
          "internalType": "uint256",
          "name": "phno",
          "type": "uint256"
        },
        {
          "indexed": false,
          "internalType": "string",
          "name": "nominees",
          "type": "string"
        },
        {
          "indexed": false,
          "internalType": "string",
          "name": "medicalIssues",
          "type": "string"
        },
        {
          "indexed": false,
          "internalType": "string",
          "name": "allergies",
          "type": "string"
        }
      ],
      "name": "patientEdit",
      "type": "event"
    },
    {
      "constant": true,
      "inputs": [
        {
          "internalType": "address",
          "name": "",
          "type": "address"
        }
      ],
      "name": "Patients",
      "outputs": [
        {
          "internalType": "address",
          "name": "creatorAddress",
          "type": "address"
        },
        {
          "internalType": "string",
          "name": "name",
          "type": "string"
        },
        {
          "internalType": "string",
          "name": "residenceAddress",
          "type": "string"
        },
        {
          "internalType": "string",
          "name": "nominees",
          "type": "string"
        },
        {
          "internalType": "uint256",
          "name": "phno",
          "type": "uint256"
        },
        {
          "internalType": "string",
          "name": "medicalIssues",
          "type": "string"
        },
        {
          "internalType": "string",
          "name": "allergies",
          "type": "string"
        },
        {
          "internalType": "address",
          "name": "patientAddress",
          "type": "address"
        },
        {
          "internalType": "bool",
          "name": "isUser",
          "type": "bool"
        }
      ],
      "payable": false,
      "stateMutability": "view",
      "type": "function"
    },
    {
      "constant": false,
      "inputs": [
        {
          "internalType": "string",
          "name": "name",
          "type": "string"
        },
        {
          "internalType": "string",
          "name": "residenceAddress",
          "type": "string"
        },
        {
          "internalType": "uint256",
          "name": "phno",
          "type": "uint256"
        },
        {
          "internalType": "string",
          "name": "nominees",
          "type": "string"
        },
        {
          "internalType": "string",
          "name": "medicalIssues",
          "type": "string"
        },
        {
          "internalType": "string",
          "name": "allergies",
          "type": "string"
        },
        {
          "internalType": "address",
          "name": "patientAddress",
          "type": "address"
        }
      ],
      "name": "createPatient",
      "outputs": [],
      "payable": false,
      "stateMutability": "nonpayable",
      "type": "function"
    },
    {
      "constant": false,
      "inputs": [
        {
          "internalType": "address",
          "name": "patientAddress",
          "type": "address"
        },
        {
          "internalType": "string",
          "name": "name",
          "type": "string"
        },
        {
          "internalType": "string",
          "name": "residenceAddress",
          "type": "string"
        },
        {
          "internalType": "uint256",
          "name": "phno",
          "type": "uint256"
        },
        {
          "internalType": "string",
          "name": "nominees",
          "type": "string"
        },
        {
          "internalType": "string",
          "name": "medicalIssues",
          "type": "string"
        },
        {
          "internalType": "string",
          "name": "allergies",
          "type": "string"
        }
      ],
      "name": "editPatient",
      "outputs": [],
      "payable": false,
      "stateMutability": "nonpayable",
      "type": "function"
    }
  ],
  "bytecode": "0x608060405234801561001057600080fd5b50611a82806100206000396000f3fe608060405234801561001057600080fd5b50600436106100415760003560e01c8063ad3903e914610046578063afca7e1514610387578063f818f4bd1461066c575b600080fd5b610385600480360360e081101561005c57600080fd5b810190808035906020019064010000000081111561007957600080fd5b82018360208201111561008b57600080fd5b803590602001918460018302840111640100000000831117156100ad57600080fd5b91908080601f016020809104026020016040519081016040528093929190818152602001838380828437600081840152601f19601f8201169050808301925050505050505091929192908035906020019064010000000081111561011057600080fd5b82018360208201111561012257600080fd5b8035906020019184600183028401116401000000008311171561014457600080fd5b91908080601f016020809104026020016040519081016040528093929190818152602001838380828437600081840152601f19601f82011690508083019250505050505050919291929080359060200190929190803590602001906401000000008111156101b157600080fd5b8201836020820111156101c357600080fd5b803590602001918460018302840111640100000000831117156101e557600080fd5b91908080601f016020809104026020016040519081016040528093929190818152602001838380828437600081840152601f19601f8201169050808301925050505050505091929192908035906020019064010000000081111561024857600080fd5b82018360208201111561025a57600080fd5b8035906020019184600183028401116401000000008311171561027c57600080fd5b91908080601f016020809104026020016040519081016040528093929190818152602001838380828437600081840152601f19601f820116905080830192505050505050509192919290803590602001906401000000008111156102df57600080fd5b8201836020820111156102f157600080fd5b8035906020019184600183028401116401000000008311171561031357600080fd5b91908080601f016020809104026020016040519081016040528093929190818152602001838380828437600081840152601f19601f820116905080830192505050505050509192919290803573ffffffffffffffffffffffffffffffffffffffff1690602001909291905050506109ad565b005b6103c96004803603602081101561039d57600080fd5b81019080803573ffffffffffffffffffffffffffffffffffffffff169060200190929190505050610ed6565b604051808a73ffffffffffffffffffffffffffffffffffffffff1673ffffffffffffffffffffffffffffffffffffffff16815260200180602001806020018060200189815260200180602001806020018873ffffffffffffffffffffffffffffffffffffffff1673ffffffffffffffffffffffffffffffffffffffff1681526020018715151515815260200186810386528e818151815260200191508051906020019080838360005b8381101561048d578082015181840152602081019050610472565b50505050905090810190601f1680156104ba5780820380516001836020036101000a031916815260200191505b5086810385528d818151815260200191508051906020019080838360005b838110156104f35780820151818401526020810190506104d8565b50505050905090810190601f1680156105205780820380516001836020036101000a031916815260200191505b5086810384528c818151815260200191508051906020019080838360005b8381101561055957808201518184015260208101905061053e565b50505050905090810190601f1680156105865780820380516001836020036101000a031916815260200191505b5086810383528a818151815260200191508051906020019080838360005b838110156105bf5780820151818401526020810190506105a4565b50505050905090810190601f1680156105ec5780820380516001836020036101000a031916815260200191505b50868103825289818151815260200191508051906020019080838360005b8381101561062557808201518184015260208101905061060a565b50505050905090810190601f1680156106525780820380516001836020036101000a031916815260200191505b509e50505050505050505050505050505060405180910390f35b6109ab600480360360e081101561068257600080fd5b81019080803573ffffffffffffffffffffffffffffffffffffffff169060200190929190803590602001906401000000008111156106bf57600080fd5b8201836020820111156106d157600080fd5b803590602001918460018302840111640100000000831117156106f357600080fd5b91908080601f016020809104026020016040519081016040528093929190818152602001838380828437600081840152601f19601f8201169050808301925050505050505091929192908035906020019064010000000081111561075657600080fd5b82018360208201111561076857600080fd5b8035906020019184600183028401116401000000008311171561078a57600080fd5b91908080601f016020809104026020016040519081016040528093929190818152602001838380828437600081840152601f19601f82011690508083019250505050505050919291929080359060200190929190803590602001906401000000008111156107f757600080fd5b82018360208201111561080957600080fd5b8035906020019184600183028401116401000000008311171561082b57600080fd5b91908080601f016020809104026020016040519081016040528093929190818152602001838380828437600081840152601f19601f8201169050808301925050505050505091929192908035906020019064010000000081111561088e57600080fd5b8201836020820111156108a057600080fd5b803590602001918460018302840111640100000000831117156108c257600080fd5b91908080601f016020809104026020016040519081016040528093929190818152602001838380828437600081840152601f19601f8201169050808301925050505050505091929192908035906020019064010000000081111561092557600080fd5b82018360208201111561093757600080fd5b8035906020019184600183028401116401000000008311171561095957600080fd5b91908080601f016020809104026020016040519081016040528093929190818152602001838380828437600081840152601f19601f820116905080830192505050505050509192919290505050611269565b005b6000808273ffffffffffffffffffffffffffffffffffffffff1673ffffffffffffffffffffffffffffffffffffffff16815260200190815260200160002060070160149054906101000a900460ff1615610a0657600080fd5b6040518061012001604052803373ffffffffffffffffffffffffffffffffffffffff1681526020018881526020018781526020018581526020018681526020018481526020018381526020018273ffffffffffffffffffffffffffffffffffffffff168152602001600115158152506000808373ffffffffffffffffffffffffffffffffffffffff1673ffffffffffffffffffffffffffffffffffffffff16815260200190815260200160002060008201518160000160006101000a81548173ffffffffffffffffffffffffffffffffffffffff021916908373ffffffffffffffffffffffffffffffffffffffff1602179055506020820151816001019080519060200190610b16929190611928565b506040820151816002019080519060200190610b33929190611928565b506060820151816003019080519060200190610b50929190611928565b506080820151816004015560a0820151816005019080519060200190610b77929190611928565b5060c0820151816006019080519060200190610b94929190611928565b5060e08201518160070160006101000a81548173ffffffffffffffffffffffffffffffffffffffff021916908373ffffffffffffffffffffffffffffffffffffffff1602179055506101008201518160070160146101000a81548160ff0219169083151502179055509050507ff71113c116a95228ee1c733562e929fd8e523ab0bbc14780952f7b2fb1bc97c633888887898888886001604051808a73ffffffffffffffffffffffffffffffffffffffff1673ffffffffffffffffffffffffffffffffffffffff16815260200180602001806020018060200189815260200180602001806020018873ffffffffffffffffffffffffffffffffffffffff1673ffffffffffffffffffffffffffffffffffffffff1681526020018715151515815260200186810386528e818151815260200191508051906020019080838360005b83811015610cef578082015181840152602081019050610cd4565b50505050905090810190601f168015610d1c5780820380516001836020036101000a031916815260200191505b5086810385528d818151815260200191508051906020019080838360005b83811015610d55578082015181840152602081019050610d3a565b50505050905090810190601f168015610d825780820380516001836020036101000a031916815260200191505b5086810384528c818151815260200191508051906020019080838360005b83811015610dbb578082015181840152602081019050610da0565b50505050905090810190601f168015610de85780820380516001836020036101000a031916815260200191505b5086810383528a818151815260200191508051906020019080838360005b83811015610e21578082015181840152602081019050610e06565b50505050905090810190601f168015610e4e5780820380516001836020036101000a031916815260200191505b50868103825289818151815260200191508051906020019080838360005b83811015610e87578082015181840152602081019050610e6c565b50505050905090810190601f168015610eb45780820380516001836020036101000a031916815260200191505b509e50505050505050505050505050505060405180910390a150505050505050565b60006020528060005260406000206000915090508060000160009054906101000a900473ffffffffffffffffffffffffffffffffffffffff1690806001018054600181600116156101000203166002900480601f016020809104026020016040519081016040528092919081815260200182805460018160011615610100020316600290048015610fa85780601f10610f7d57610100808354040283529160200191610fa8565b820191906000526020600020905b815481529060010190602001808311610f8b57829003601f168201915b505050505090806002018054600181600116156101000203166002900480601f0160208091040260200160405190810160405280929190818152602001828054600181600116156101000203166002900480156110465780601f1061101b57610100808354040283529160200191611046565b820191906000526020600020905b81548152906001019060200180831161102957829003601f168201915b505050505090806003018054600181600116156101000203166002900480601f0160208091040260200160405190810160405280929190818152602001828054600181600116156101000203166002900480156110e45780601f106110b9576101008083540402835291602001916110e4565b820191906000526020600020905b8154815290600101906020018083116110c757829003601f168201915b505050505090806004015490806005018054600181600116156101000203166002900480601f0160208091040260200160405190810160405280929190818152602001828054600181600116156101000203166002900480156111885780601f1061115d57610100808354040283529160200191611188565b820191906000526020600020905b81548152906001019060200180831161116b57829003601f168201915b505050505090806006018054600181600116156101000203166002900480601f0160208091040260200160405190810160405280929190818152602001828054600181600116156101000203166002900480156112265780601f106111fb57610100808354040283529160200191611226565b820191906000526020600020905b81548152906001019060200180831161120957829003601f168201915b5050505050908060070160009054906101000a900473ffffffffffffffffffffffffffffffffffffffff16908060070160149054906101000a900460ff16905089565b6000808873ffffffffffffffffffffffffffffffffffffffff1673ffffffffffffffffffffffffffffffffffffffff16815260200190815260200160002060070160149054906101000a900460ff166112c157600080fd5b856000808973ffffffffffffffffffffffffffffffffffffffff1673ffffffffffffffffffffffffffffffffffffffff16815260200190815260200160002060010190805190602001906113169291906119a8565b50846000808973ffffffffffffffffffffffffffffffffffffffff1673ffffffffffffffffffffffffffffffffffffffff168152602001908152602001600020600201908051906020019061136c9291906119a8565b50836000808973ffffffffffffffffffffffffffffffffffffffff1673ffffffffffffffffffffffffffffffffffffffff16815260200190815260200160002060040181905550826000808973ffffffffffffffffffffffffffffffffffffffff1673ffffffffffffffffffffffffffffffffffffffff16815260200190815260200160002060030190805190602001906114089291906119a8565b50816000808973ffffffffffffffffffffffffffffffffffffffff1673ffffffffffffffffffffffffffffffffffffffff168152602001908152602001600020600501908051906020019061145e9291906119a8565b50806000808973ffffffffffffffffffffffffffffffffffffffff1673ffffffffffffffffffffffffffffffffffffffff16815260200190815260200160002060060190805190602001906114b49291906119a8565b507f24002699071d9ea5c53783ac7292f8627438b3ce2ba65ebe942e126cbc5b84396000808973ffffffffffffffffffffffffffffffffffffffff1673ffffffffffffffffffffffffffffffffffffffff1681526020019081526020016000206001016000808a73ffffffffffffffffffffffffffffffffffffffff1673ffffffffffffffffffffffffffffffffffffffff1681526020019081526020016000206002016000808b73ffffffffffffffffffffffffffffffffffffffff1673ffffffffffffffffffffffffffffffffffffffff168152602001908152602001600020600401546000808c73ffffffffffffffffffffffffffffffffffffffff1673ffffffffffffffffffffffffffffffffffffffff1681526020019081526020016000206003016000808d73ffffffffffffffffffffffffffffffffffffffff1673ffffffffffffffffffffffffffffffffffffffff1681526020019081526020016000206005016000808e73ffffffffffffffffffffffffffffffffffffffff1673ffffffffffffffffffffffffffffffffffffffff16815260200190815260200160002060060160405180806020018060200187815260200180602001806020018060200186810386528c8181546001816001161561010002031660029004815260200191508054600181600116156101000203166002900480156116fc5780601f106116d1576101008083540402835291602001916116fc565b820191906000526020600020905b8154815290600101906020018083116116df57829003601f168201915b505086810385528b81815460018160011615610100020316600290048152602001915080546001816001161561010002031660029004801561177f5780601f106117545761010080835404028352916020019161177f565b820191906000526020600020905b81548152906001019060200180831161176257829003601f168201915b50508681038452898181546001816001161561010002031660029004815260200191508054600181600116156101000203166002900480156118025780601f106117d757610100808354040283529160200191611802565b820191906000526020600020905b8154815290600101906020018083116117e557829003601f168201915b50508681038352888181546001816001161561010002031660029004815260200191508054600181600116156101000203166002900480156118855780601f1061185a57610100808354040283529160200191611885565b820191906000526020600020905b81548152906001019060200180831161186857829003601f168201915b50508681038252878181546001816001161561010002031660029004815260200191508054600181600116156101000203166002900480156119085780601f106118dd57610100808354040283529160200191611908565b820191906000526020600020905b8154815290600101906020018083116118eb57829003601f168201915b50509b50505050505050505050505060405180910390a150505050505050565b828054600181600116156101000203166002900490600052602060002090601f016020900481019282601f1061196957805160ff1916838001178555611997565b82800160010185558215611997579182015b8281111561199657825182559160200191906001019061197b565b5b5090506119a49190611a28565b5090565b828054600181600116156101000203166002900490600052602060002090601f016020900481019282601f106119e957805160ff1916838001178555611a17565b82800160010185558215611a17579182015b82811115611a165782518255916020019190600101906119fb565b5b509050611a249190611a28565b5090565b611a4a91905b80821115611a46576000816000905550600101611a2e565b5090565b9056fea265627a7a72315820139516e14d5bbc61be236f91ed8117d78cfcd8037961319d0093b8a06963b98864736f6c63430005100032",
  "source": "// Use Solidity Version greater than 0.7.0 and less than 0.9.0\r\n\r\npragma solidity ^0.5.0;\r\n\r\n// Create a Smart Contract called Medical\r\ncontract MediScan {\r\n    // Create a mapping to store the data as an array of Patients using the address of each Patient as the parameter\r\n    mapping(address => Patient) public Patients;\r\n    // Create an event called patientCreated to notify the listeners that the patient was created\r\n    event patientCreated(\r\n        address creatorAddress,\r\n        string name,\r\n        string residenceAddress,\r\n        string nominees,\r\n        uint256 phno,\r\n        string medicalIssues,\r\n        string allergies,\r\n        address patientAddress,\r\n        bool isUser\r\n    );\r\n    // Create an event called patientEdit to notify the listeners that the patient was Edited\r\n\r\n    event patientEdit(\r\n        string name,\r\n    string residenceAddress,\r\n    uint phno,\r\n    string nominees, \r\n    string medicalIssues, \r\n    string allergies\r\n        );\r\n\r\n    // Create a struct called Patient to store the data of the patient\r\n    struct Patient {\r\n        address creatorAddress; // authority who creates the Patient\r\n        string name; // Na,e of the patient\r\n        string residenceAddress; // address of the patient\r\n        string nominees; // closest person ID// also seperated by ;\r\n        uint256 phno;\r\n        string medicalIssues; // seperated by ;\r\n        string allergies; //seperated by ;\r\n        address patientAddress; // Patient's Address\r\n        bool isUser;\r\n    }\r\n\r\n    // Create a function to handle the creation of the Patients\r\n    function createPatient(\r\n        string memory name,\r\n        string memory residenceAddress,\r\n        uint256 phno,\r\n        string memory nominees,\r\n        string memory medicalIssues,\r\n        string memory allergies,\r\n        address patientAddress\r\n    ) public {\r\n        // If a user already exists then fail the transaction\r\n        require(!Patients[patientAddress].isUser);\r\n\r\n        // Create the patient with the authorization of the creator\r\n        Patients[patientAddress] = Patient(\r\n            msg.sender,\r\n            name,\r\n            residenceAddress,\r\n            nominees,\r\n            phno,\r\n            medicalIssues,\r\n            allergies,\r\n            patientAddress,\r\n            true\r\n        );\r\n\r\n        // Emit the event that the patient was successfully created\r\n        emit patientCreated(\r\n            msg.sender,\r\n            name,\r\n            residenceAddress,\r\n            nominees,\r\n            phno,\r\n            medicalIssues,\r\n            allergies,\r\n            patientAddress,\r\n            true\r\n        );\r\n    }\r\n\r\n    \r\n    // Create a function to edit the patient's details if neccessary\r\n    function editPatient(\r\n        address patientAddress, \r\n        string memory name, \r\n        string memory residenceAddress, \r\n        uint256  phno, \r\n        string memory nominees, \r\n        string memory medicalIssues,  \r\n        string memory allergies \r\n    ) public {\r\n        // User should exist\r\n    require(!(!Patients[patientAddress].isUser));\r\n        // Set all data\r\n        Patients[patientAddress].name=name;\r\n        Patients[patientAddress].residenceAddress=residenceAddress;\r\n        Patients[patientAddress].phno=phno;\r\n        Patients[patientAddress].nominees=nominees;\r\n        Patients[patientAddress].medicalIssues=medicalIssues;\r\n        Patients[patientAddress].allergies=allergies;\r\n        \r\n        // Emit that patient was Edited\r\n        emit patientEdit(\r\n            Patients[patientAddress].name, \r\n            Patients[patientAddress].residenceAddress,\r\n            Patients[patientAddress].phno,\r\n            Patients[patientAddress].nominees,\r\n            Patients[patientAddress].medicalIssues,\r\n            Patients[patientAddress].allergies\r\n            );\r\n        \r\n    }\r\n}\r\n",
  "sourcePath": "D:/Projects/College/Final Year/mediScan/src/contracts/MediScan.sol",
  "compiler": {
    "name": "solc",
    "version": "0.5.16+commit.9c3226ce.Emscripten.clang"
  },
  "schemaVersion": "3.4.1",
  "updatedAt": "2021-07-07T07:12:31.082Z",
  "networkType": "ethereum",
  "devdoc": {
    "methods": {}
  },
  "userdoc": {
    "methods": {}
  }
}