{
  "contractName": "MediScan",
  "abi": [
    {
      "anonymous": false,
      "inputs": [
        {
          "indexed": false,
          "internalType": "address",
          "name": "creatorAddress",
          "type": "address"
        },
        {
          "indexed": false,
          "internalType": "string",
          "name": "name",
          "type": "string"
        },
        {
          "indexed": false,
          "internalType": "string",
          "name": "residenceAddress",
          "type": "string"
        },
        {
          "indexed": false,
          "internalType": "string",
          "name": "nominees",
          "type": "string"
        },
        {
          "indexed": false,
          "internalType": "uint256",
          "name": "phno",
          "type": "uint256"
        },
        {
          "indexed": false,
          "internalType": "string",
          "name": "medicalIssues",
          "type": "string"
        },
        {
          "indexed": false,
          "internalType": "string",
          "name": "allergies",
          "type": "string"
        },
        {
          "indexed": false,
          "internalType": "address",
          "name": "patientAddress",
          "type": "address"
        },
        {
          "indexed": false,
          "internalType": "bool",
          "name": "isUser",
          "type": "bool"
        }
      ],
      "name": "patientCreated",
      "type": "event"
    },
    {
      "constant": true,
      "inputs": [
        {
          "internalType": "address",
          "name": "",
          "type": "address"
        }
      ],
      "name": "Patients",
      "outputs": [
        {
          "internalType": "address",
          "name": "creatorAddress",
          "type": "address"
        },
        {
          "internalType": "string",
          "name": "name",
          "type": "string"
        },
        {
          "internalType": "string",
          "name": "residenceAddress",
          "type": "string"
        },
        {
          "internalType": "string",
          "name": "nominees",
          "type": "string"
        },
        {
          "internalType": "uint256",
          "name": "phno",
          "type": "uint256"
        },
        {
          "internalType": "string",
          "name": "medicalIssues",
          "type": "string"
        },
        {
          "internalType": "string",
          "name": "allergies",
          "type": "string"
        },
        {
          "internalType": "address",
          "name": "patientAddress",
          "type": "address"
        },
        {
          "internalType": "bool",
          "name": "isUser",
          "type": "bool"
        }
      ],
      "payable": false,
      "stateMutability": "view",
      "type": "function"
    },
    {
      "constant": false,
      "inputs": [
        {
          "internalType": "string",
          "name": "name",
          "type": "string"
        },
        {
          "internalType": "string",
          "name": "residenceAddress",
          "type": "string"
        },
        {
          "internalType": "uint256",
          "name": "phno",
          "type": "uint256"
        },
        {
          "internalType": "string",
          "name": "nominees",
          "type": "string"
        },
        {
          "internalType": "string",
          "name": "medicalIssues",
          "type": "string"
        },
        {
          "internalType": "string",
          "name": "allergies",
          "type": "string"
        },
        {
          "internalType": "address",
          "name": "patientAddress",
          "type": "address"
        }
      ],
      "name": "createPatient",
      "outputs": [],
      "payable": false,
      "stateMutability": "nonpayable",
      "type": "function"
    }
  ],
  "bytecode": "0x608060405234801561001057600080fd5b50610ff7806100206000396000f3fe608060405234801561001057600080fd5b50600436106100365760003560e01c8063ad3903e91461003b578063afca7e151461037c575b600080fd5b61037a600480360360e081101561005157600080fd5b810190808035906020019064010000000081111561006e57600080fd5b82018360208201111561008057600080fd5b803590602001918460018302840111640100000000831117156100a257600080fd5b91908080601f016020809104026020016040519081016040528093929190818152602001838380828437600081840152601f19601f8201169050808301925050505050505091929192908035906020019064010000000081111561010557600080fd5b82018360208201111561011757600080fd5b8035906020019184600183028401116401000000008311171561013957600080fd5b91908080601f016020809104026020016040519081016040528093929190818152602001838380828437600081840152601f19601f82011690508083019250505050505050919291929080359060200190929190803590602001906401000000008111156101a657600080fd5b8201836020820111156101b857600080fd5b803590602001918460018302840111640100000000831117156101da57600080fd5b91908080601f016020809104026020016040519081016040528093929190818152602001838380828437600081840152601f19601f8201169050808301925050505050505091929192908035906020019064010000000081111561023d57600080fd5b82018360208201111561024f57600080fd5b8035906020019184600183028401116401000000008311171561027157600080fd5b91908080601f016020809104026020016040519081016040528093929190818152602001838380828437600081840152601f19601f820116905080830192505050505050509192919290803590602001906401000000008111156102d457600080fd5b8201836020820111156102e657600080fd5b8035906020019184600183028401116401000000008311171561030857600080fd5b91908080601f016020809104026020016040519081016040528093929190818152602001838380828437600081840152601f19601f820116905080830192505050505050509192919290803573ffffffffffffffffffffffffffffffffffffffff169060200190929190505050610661565b005b6103be6004803603602081101561039257600080fd5b81019080803573ffffffffffffffffffffffffffffffffffffffff169060200190929190505050610b8a565b604051808a73ffffffffffffffffffffffffffffffffffffffff1673ffffffffffffffffffffffffffffffffffffffff16815260200180602001806020018060200189815260200180602001806020018873ffffffffffffffffffffffffffffffffffffffff1673ffffffffffffffffffffffffffffffffffffffff1681526020018715151515815260200186810386528e818151815260200191508051906020019080838360005b83811015610482578082015181840152602081019050610467565b50505050905090810190601f1680156104af5780820380516001836020036101000a031916815260200191505b5086810385528d818151815260200191508051906020019080838360005b838110156104e85780820151818401526020810190506104cd565b50505050905090810190601f1680156105155780820380516001836020036101000a031916815260200191505b5086810384528c818151815260200191508051906020019080838360005b8381101561054e578082015181840152602081019050610533565b50505050905090810190601f16801561057b5780820380516001836020036101000a031916815260200191505b5086810383528a818151815260200191508051906020019080838360005b838110156105b4578082015181840152602081019050610599565b50505050905090810190601f1680156105e15780820380516001836020036101000a031916815260200191505b50868103825289818151815260200191508051906020019080838360005b8381101561061a5780820151818401526020810190506105ff565b50505050905090810190601f1680156106475780820380516001836020036101000a031916815260200191505b509e50505050505050505050505050505060405180910390f35b6000808273ffffffffffffffffffffffffffffffffffffffff1673ffffffffffffffffffffffffffffffffffffffff16815260200190815260200160002060070160149054906101000a900460ff16156106ba57600080fd5b6040518061012001604052803373ffffffffffffffffffffffffffffffffffffffff1681526020018881526020018781526020018581526020018681526020018481526020018381526020018273ffffffffffffffffffffffffffffffffffffffff168152602001600115158152506000808373ffffffffffffffffffffffffffffffffffffffff1673ffffffffffffffffffffffffffffffffffffffff16815260200190815260200160002060008201518160000160006101000a81548173ffffffffffffffffffffffffffffffffffffffff021916908373ffffffffffffffffffffffffffffffffffffffff16021790555060208201518160010190805190602001906107ca929190610f1d565b5060408201518160020190805190602001906107e7929190610f1d565b506060820151816003019080519060200190610804929190610f1d565b506080820151816004015560a082015181600501908051906020019061082b929190610f1d565b5060c0820151816006019080519060200190610848929190610f1d565b5060e08201518160070160006101000a81548173ffffffffffffffffffffffffffffffffffffffff021916908373ffffffffffffffffffffffffffffffffffffffff1602179055506101008201518160070160146101000a81548160ff0219169083151502179055509050507ff71113c116a95228ee1c733562e929fd8e523ab0bbc14780952f7b2fb1bc97c633888887898888886001604051808a73ffffffffffffffffffffffffffffffffffffffff1673ffffffffffffffffffffffffffffffffffffffff16815260200180602001806020018060200189815260200180602001806020018873ffffffffffffffffffffffffffffffffffffffff1673ffffffffffffffffffffffffffffffffffffffff1681526020018715151515815260200186810386528e818151815260200191508051906020019080838360005b838110156109a3578082015181840152602081019050610988565b50505050905090810190601f1680156109d05780820380516001836020036101000a031916815260200191505b5086810385528d818151815260200191508051906020019080838360005b83811015610a095780820151818401526020810190506109ee565b50505050905090810190601f168015610a365780820380516001836020036101000a031916815260200191505b5086810384528c818151815260200191508051906020019080838360005b83811015610a6f578082015181840152602081019050610a54565b50505050905090810190601f168015610a9c5780820380516001836020036101000a031916815260200191505b5086810383528a818151815260200191508051906020019080838360005b83811015610ad5578082015181840152602081019050610aba565b50505050905090810190601f168015610b025780820380516001836020036101000a031916815260200191505b50868103825289818151815260200191508051906020019080838360005b83811015610b3b578082015181840152602081019050610b20565b50505050905090810190601f168015610b685780820380516001836020036101000a031916815260200191505b509e50505050505050505050505050505060405180910390a150505050505050565b60006020528060005260406000206000915090508060000160009054906101000a900473ffffffffffffffffffffffffffffffffffffffff1690806001018054600181600116156101000203166002900480601f016020809104026020016040519081016040528092919081815260200182805460018160011615610100020316600290048015610c5c5780601f10610c3157610100808354040283529160200191610c5c565b820191906000526020600020905b815481529060010190602001808311610c3f57829003601f168201915b505050505090806002018054600181600116156101000203166002900480601f016020809104026020016040519081016040528092919081815260200182805460018160011615610100020316600290048015610cfa5780601f10610ccf57610100808354040283529160200191610cfa565b820191906000526020600020905b815481529060010190602001808311610cdd57829003601f168201915b505050505090806003018054600181600116156101000203166002900480601f016020809104026020016040519081016040528092919081815260200182805460018160011615610100020316600290048015610d985780601f10610d6d57610100808354040283529160200191610d98565b820191906000526020600020905b815481529060010190602001808311610d7b57829003601f168201915b505050505090806004015490806005018054600181600116156101000203166002900480601f016020809104026020016040519081016040528092919081815260200182805460018160011615610100020316600290048015610e3c5780601f10610e1157610100808354040283529160200191610e3c565b820191906000526020600020905b815481529060010190602001808311610e1f57829003601f168201915b505050505090806006018054600181600116156101000203166002900480601f016020809104026020016040519081016040528092919081815260200182805460018160011615610100020316600290048015610eda5780601f10610eaf57610100808354040283529160200191610eda565b820191906000526020600020905b815481529060010190602001808311610ebd57829003601f168201915b5050505050908060070160009054906101000a900473ffffffffffffffffffffffffffffffffffffffff16908060070160149054906101000a900460ff16905089565b828054600181600116156101000203166002900490600052602060002090601f016020900481019282601f10610f5e57805160ff1916838001178555610f8c565b82800160010185558215610f8c579182015b82811115610f8b578251825591602001919060010190610f70565b5b509050610f999190610f9d565b5090565b610fbf91905b80821115610fbb576000816000905550600101610fa3565b5090565b9056fea265627a7a723158205d37a5d0d3bbe6df22f5d5f9acc3100185218593fbf3c58f3f840b9561b4e0c164736f6c63430005100032",
  "source": "// Use Solidity Version greater than 0.7.0 and less than 0.9.0\r\n\r\npragma solidity ^0.5.0;\r\n\r\n// Create a Smart Contract called Medical\r\ncontract MediScan {\r\n    // Create a mapping to store the data as an array of Patients using the address of each Patient as the parameter\r\n    mapping(address => Patient) public Patients;\r\n    // Create an event called patientCreated to notify the listeners that the patient was created\r\n    event patientCreated(\r\n        address creatorAddress,\r\n        string name,\r\n        string residenceAddress,\r\n        string nominees,\r\n        uint256 phno,\r\n        string medicalIssues,\r\n        string allergies,\r\n        address patientAddress,\r\n        bool isUser\r\n    );\r\n\r\n    // Create a struct called Patient to store the data of the patient\r\n    struct Patient {\r\n        address creatorAddress; // authority who creates the Patient\r\n        string name; // Na,e of the patient\r\n        string residenceAddress; // address of the patient\r\n        string nominees; // closest person ID// also seperated by ;\r\n        uint256 phno;\r\n        string medicalIssues; // seperated by ;\r\n        string allergies; //seperated by ;\r\n        address patientAddress; // Patient's Address\r\n        bool isUser;\r\n    }\r\n\r\n    // Create a function to handle the creation of the Patients\r\n    function createPatient(\r\n        string memory name,\r\n        string memory residenceAddress,\r\n        uint256 phno,\r\n        string memory nominees,\r\n        string memory medicalIssues,\r\n        string memory allergies,\r\n        address patientAddress\r\n    ) public {\r\n        // If a user already exists then fail the transaction\r\n        require(!Patients[patientAddress].isUser);\r\n\r\n        // Create the patient with the authorization of the creator\r\n        Patients[patientAddress] = Patient(\r\n            msg.sender,\r\n            name,\r\n            residenceAddress,\r\n            nominees,\r\n            phno,\r\n            medicalIssues,\r\n            allergies,\r\n            patientAddress,\r\n            true\r\n        );\r\n\r\n        // Emit the event that the patient was successfully created\r\n        emit patientCreated(\r\n            msg.sender,\r\n            name,\r\n            residenceAddress,\r\n            nominees,\r\n            phno,\r\n            medicalIssues,\r\n            allergies,\r\n            patientAddress,\r\n            true\r\n        );\r\n    }\r\n}\r\n",
  "sourcePath": "D:/Projects/College/Final Year/mediScan/src/contracts/MediScan.sol",
  "compiler": {
    "name": "solc",
    "version": "0.5.16+commit.9c3226ce.Emscripten.clang"
  },
  "schemaVersion": "3.4.1",
  "updatedAt": "2021-06-26T12:01:44.689Z",
  "networkType": "ethereum",
  "devdoc": {
    "methods": {}
  },
  "userdoc": {
    "methods": {}
  }
}